{
  "contractName": "Permissions",
  "abi": [
    {
      "anonymous": false,
      "inputs": [
        {
          "indexed": false,
          "name": "_enodeId",
          "type": "string"
        }
      ],
      "name": "NodeProposed",
      "type": "event"
    },
    {
      "anonymous": false,
      "inputs": [
        {
          "indexed": false,
          "name": "_enodeId",
          "type": "string"
        },
        {
          "indexed": false,
          "name": "_ipAddrPort",
          "type": "string"
        },
        {
          "indexed": false,
          "name": "_discPort",
          "type": "string"
        },
        {
          "indexed": false,
          "name": "_raftPort",
          "type": "string"
        }
      ],
      "name": "NodeApproved",
      "type": "event"
    },
    {
      "anonymous": false,
      "inputs": [
        {
          "indexed": false,
          "name": "_enodeId",
          "type": "string"
        }
      ],
      "name": "NodePendingDeactivation",
      "type": "event"
    },
    {
      "anonymous": false,
      "inputs": [
        {
          "indexed": false,
          "name": "_enodeId",
          "type": "string"
        },
        {
          "indexed": false,
          "name": "_ipAddrPort",
          "type": "string"
        },
        {
          "indexed": false,
          "name": "_discPort",
          "type": "string"
        },
        {
          "indexed": false,
          "name": "_raftPort",
          "type": "string"
        }
      ],
      "name": "NodeDeactivated",
      "type": "event"
    },
    {
      "anonymous": false,
      "inputs": [
        {
          "indexed": false,
          "name": "_enodeId",
          "type": "string"
        }
      ],
      "name": "NodePendingActivation",
      "type": "event"
    },
    {
      "anonymous": false,
      "inputs": [
        {
          "indexed": false,
          "name": "_enodeId",
          "type": "string"
        },
        {
          "indexed": false,
          "name": "_ipAddrPort",
          "type": "string"
        },
        {
          "indexed": false,
          "name": "_discPort",
          "type": "string"
        },
        {
          "indexed": false,
          "name": "_raftPort",
          "type": "string"
        }
      ],
      "name": "NodeActivated",
      "type": "event"
    },
    {
      "anonymous": false,
      "inputs": [
        {
          "indexed": false,
          "name": "_enodeId",
          "type": "string"
        }
      ],
      "name": "NodePendingBlacklist",
      "type": "event"
    },
    {
      "anonymous": false,
      "inputs": [
        {
          "indexed": false,
          "name": "_enodeId",
          "type": "string"
        },
        {
          "indexed": false,
          "name": "_ipAddrPort",
          "type": "string"
        },
        {
          "indexed": false,
          "name": "_discPort",
          "type": "string"
        },
        {
          "indexed": false,
          "name": "_raftPort",
          "type": "string"
        }
      ],
      "name": "NodeBlacklisted",
      "type": "event"
    },
    {
      "anonymous": false,
      "inputs": [
        {
          "indexed": false,
          "name": "_enodeId",
          "type": "string"
        }
      ],
      "name": "PendingOperationCancelled",
      "type": "event"
    },
    {
      "anonymous": false,
      "inputs": [
        {
          "indexed": false,
          "name": "_address",
          "type": "address"
        },
        {
          "indexed": false,
          "name": "_access",
          "type": "uint8"
        }
      ],
      "name": "AccountAccessModified",
      "type": "event"
    },
    {
      "constant": true,
      "inputs": [],
      "name": "getNumberOfVoters",
      "outputs": [
        {
          "name": "",
          "type": "uint256"
        }
      ],
      "payable": false,
      "stateMutability": "view",
      "type": "function"
    },
    {
      "constant": true,
      "inputs": [
        {
          "name": "i",
          "type": "uint256"
        }
      ],
      "name": "getVoter",
      "outputs": [
        {
          "name": "_addr",
          "type": "address"
        }
      ],
      "payable": false,
      "stateMutability": "view",
      "type": "function"
    },
    {
      "constant": true,
      "inputs": [],
      "name": "getNetworkBootStatus",
      "outputs": [
        {
          "name": "",
          "type": "bool"
        }
      ],
      "payable": false,
      "stateMutability": "view",
      "type": "function"
    },
    {
      "constant": true,
      "inputs": [
        {
          "name": "enodeId",
          "type": "string"
        }
      ],
      "name": "getNodeDetails",
      "outputs": [
        {
          "name": "_enodeId",
          "type": "string"
        },
        {
          "name": "_ipAddrPort",
          "type": "string"
        },
        {
          "name": "_discPort",
          "type": "string"
        },
        {
          "name": "_raftPort",
          "type": "string"
        },
        {
          "name": "_nodeStatus",
          "type": "uint8"
        }
      ],
      "payable": false,
      "stateMutability": "view",
      "type": "function"
    },
    {
      "constant": true,
      "inputs": [
        {
          "name": "nodeIndex",
          "type": "uint256"
        }
      ],
      "name": "getNodeDetailsFromIndex",
      "outputs": [
        {
          "name": "_enodeId",
          "type": "string"
        },
        {
          "name": "_ipAddrPort",
          "type": "string"
        },
        {
          "name": "_discPort",
          "type": "string"
        },
        {
          "name": "_raftPort",
          "type": "string"
        },
        {
          "name": "_nodeStatus",
          "type": "uint8"
        }
      ],
      "payable": false,
      "stateMutability": "view",
      "type": "function"
    },
    {
      "constant": true,
      "inputs": [],
      "name": "getNumberOfNodes",
      "outputs": [
        {
          "name": "",
          "type": "uint256"
        }
      ],
      "payable": false,
      "stateMutability": "view",
      "type": "function"
    },
    {
      "constant": true,
      "inputs": [
        {
          "name": "acctIndex",
          "type": "uint256"
        }
      ],
      "name": "getAccountDetails",
      "outputs": [
        {
          "name": "_acct",
          "type": "address"
        },
        {
          "name": "_acctAccess",
          "type": "uint8"
        }
      ],
      "payable": false,
      "stateMutability": "view",
      "type": "function"
    },
    {
      "constant": true,
      "inputs": [],
      "name": "getNumberOfAccounts",
      "outputs": [
        {
          "name": "",
          "type": "uint256"
        }
      ],
      "payable": false,
      "stateMutability": "view",
      "type": "function"
    },
    {
      "constant": true,
      "inputs": [
        {
          "name": "_enodeId",
          "type": "string"
        }
      ],
      "name": "getNodeStatus",
      "outputs": [
        {
          "name": "",
          "type": "uint8"
        }
      ],
      "payable": false,
      "stateMutability": "view",
      "type": "function"
    },
    {
      "constant": true,
      "inputs": [
        {
          "name": "_acctid",
          "type": "address"
        }
      ],
      "name": "isVoter",
      "outputs": [
        {
          "name": "",
          "type": "bool"
        }
      ],
      "payable": false,
      "stateMutability": "view",
      "type": "function"
    },
    {
      "constant": false,
      "inputs": [],
      "name": "updateNetworkBootStatus",
      "outputs": [
        {
          "name": "",
          "type": "bool"
        }
      ],
      "payable": false,
      "stateMutability": "nonpayable",
      "type": "function"
    },
    {
      "constant": false,
      "inputs": [
        {
          "name": "_enodeId",
          "type": "string"
        },
        {
          "name": "_ipAddrPort",
          "type": "string"
        },
        {
          "name": "_discPort",
          "type": "string"
        },
        {
          "name": "_raftPort",
          "type": "string"
        }
      ],
      "name": "proposeNode",
      "outputs": [],
      "payable": false,
      "stateMutability": "nonpayable",
      "type": "function"
    },
    {
      "constant": false,
      "inputs": [
        {
          "name": "_enodeId",
          "type": "string"
        }
      ],
      "name": "approveNode",
      "outputs": [],
      "payable": false,
      "stateMutability": "nonpayable",
      "type": "function"
    },
    {
      "constant": false,
      "inputs": [
        {
          "name": "_enodeId",
          "type": "string"
        }
      ],
      "name": "proposeDeactivation",
      "outputs": [],
      "payable": false,
      "stateMutability": "nonpayable",
      "type": "function"
    },
    {
      "constant": false,
      "inputs": [
        {
          "name": "_enodeId",
          "type": "string"
        }
      ],
      "name": "deactivateNode",
      "outputs": [],
      "payable": false,
      "stateMutability": "nonpayable",
      "type": "function"
    },
    {
      "constant": false,
      "inputs": [
        {
          "name": "_enodeId",
          "type": "string"
        }
      ],
      "name": "proposeNodeActivation",
      "outputs": [],
      "payable": false,
      "stateMutability": "nonpayable",
      "type": "function"
    },
    {
      "constant": false,
      "inputs": [
        {
          "name": "_enodeId",
          "type": "string"
        }
      ],
      "name": "activateNode",
      "outputs": [],
      "payable": false,
      "stateMutability": "nonpayable",
      "type": "function"
    },
    {
      "constant": false,
      "inputs": [
        {
          "name": "_enodeId",
          "type": "string"
        },
        {
          "name": "_ipAddrPort",
          "type": "string"
        },
        {
          "name": "_discPort",
          "type": "string"
        },
        {
          "name": "_raftPort",
          "type": "string"
        }
      ],
      "name": "proposeNodeBlacklisting",
      "outputs": [],
      "payable": false,
      "stateMutability": "nonpayable",
      "type": "function"
    },
    {
      "constant": false,
      "inputs": [
        {
          "name": "_enodeId",
          "type": "string"
        }
      ],
      "name": "blacklistNode",
      "outputs": [],
      "payable": false,
      "stateMutability": "nonpayable",
      "type": "function"
    },
    {
      "constant": false,
      "inputs": [
        {
          "name": "_enodeId",
          "type": "string"
        }
      ],
      "name": "cancelPendingOperation",
      "outputs": [],
      "payable": false,
      "stateMutability": "nonpayable",
      "type": "function"
    },
    {
      "constant": false,
      "inputs": [
        {
          "name": "account",
          "type": "address"
        }
      ],
      "name": "initAccounts",
      "outputs": [],
      "payable": false,
      "stateMutability": "nonpayable",
      "type": "function"
    },
    {
      "constant": false,
      "inputs": [
        {
          "name": "_address",
          "type": "address"
        },
        {
          "name": "_accountAccess",
          "type": "uint8"
        }
      ],
      "name": "updateAccountAccess",
      "outputs": [],
      "payable": false,
      "stateMutability": "nonpayable",
      "type": "function"
    },
    {
      "constant": false,
      "inputs": [
        {
          "name": "_address",
          "type": "address"
        }
      ],
      "name": "addVoter",
      "outputs": [],
      "payable": false,
      "stateMutability": "nonpayable",
      "type": "function"
    },
    {
      "constant": false,
      "inputs": [
        {
          "name": "_address",
          "type": "address"
        }
      ],
      "name": "removeVoter",
      "outputs": [],
      "payable": false,
      "stateMutability": "nonpayable",
      "type": "function"
    }
  ],
  "bytecode": "0x60806040526000600b60006101000a81548160ff02191690831515021790555034801561002b57600080fd5b506154d18061003b6000396000f30060806040526004361061013e576000357c0100000000000000000000000000000000000000000000000000000000900463ffffffff16806314a945e51461014357806321c670881461017e5780632a0b2617146101b9578063309e36ef1461023b578063397eeccb146102665780633ea6184d146102f15780633f0e0e4714610334578063420c26de1461056f57806344478e79146105aa57806347b8fe57146105d957806347dd495314610614578063487363f91461064f5780634cbfa82e1461068a57806360514a5a146106b957806384865b661461073c57806386c1ff681461076757806397c07a9b146107aa578063a7771ee3146109a9578063b81c806a14610a04578063c6962b9914610a2f578063c7ab7ccf14610a7f578063d07bff0c14610b02578063e51008e114610b6f578063f4ab9adf14610baa575b600080fd5b34801561014f57600080fd5b5061017c600480360381019080803590602001908201803590602001919091929391929390505050610bed565b005b34801561018a57600080fd5b506101b7600480360381019080803590602001908201803590602001919091929391929390505050611237565b005b3480156101c557600080fd5b506101e460048036038101908080359060200190929190505050611881565b604051808373ffffffffffffffffffffffffffffffffffffffff1673ffffffffffffffffffffffffffffffffffffffff16815260200182600381111561022657fe5b60ff1681526020019250505060405180910390f35b34801561024757600080fd5b506102506118f4565b6040518082815260200191505060405180910390f35b34801561027257600080fd5b506102cd600480360381019080803590602001908201803590602001908080601f0160208091040260200160405190810160405280939291908181526020018383808284378201915050505050509192919290505050611901565b604051808260078111156102dd57fe5b60ff16815260200191505060405180910390f35b3480156102fd57600080fd5b50610332600480360381019080803573ffffffffffffffffffffffffffffffffffffffff169060200190929190505050611aa4565b005b34801561034057600080fd5b5061039b600480360381019080803590602001908201803590602001908080601f0160208091040260200160405190810160405280939291908181526020018383808284378201915050505050509192919290505050611f03565b60405180806020018060200180602001806020018660078111156103bb57fe5b60ff16815260200185810385528a818151815260200191508051906020019080838360005b838110156103fb5780820151818401526020810190506103e0565b50505050905090810190601f1680156104285780820380516001836020036101000a031916815260200191505b50858103845289818151815260200191508051906020019080838360005b83811015610461578082015181840152602081019050610446565b50505050905090810190601f16801561048e5780820380516001836020036101000a031916815260200191505b50858103835288818151815260200191508051906020019080838360005b838110156104c75780820151818401526020810190506104ac565b50505050905090810190601f1680156104f45780820380516001836020036101000a031916815260200191505b50858103825287818151815260200191508051906020019080838360005b8381101561052d578082015181840152602081019050610512565b50505050905090810190601f16801561055a5780820380516001836020036101000a031916815260200191505b50995050505050505050505060405180910390f35b34801561057b57600080fd5b506105a8600480360381019080803590602001908201803590602001919091929391929390505050612249565b005b3480156105b657600080fd5b506105bf612893565b604051808215151515815260200191505060405180910390f35b3480156105e557600080fd5b50610612600480360381019080803590602001908201803590602001919091929391929390505050612975565b005b34801561062057600080fd5b5061064d600480360381019080803590602001908201803590602001919091929391929390505050612d1c565b005b34801561065b57600080fd5b506106886004803603810190808035906020019082018035906020019190919293919293905050506130fd565b005b34801561069657600080fd5b5061069f6137ca565b604051808215151515815260200191505060405180910390f35b3480156106c557600080fd5b5061073a6004803603810190808035906020019082018035906020019190919293919293908035906020019082018035906020019190919293919293908035906020019082018035906020019190919293919293908035906020019082018035906020019190919293919293905050506137e1565b005b34801561074857600080fd5b50610751613ce5565b6040518082815260200191505060405180910390f35b34801561077357600080fd5b506107a8600480360381019080803573ffffffffffffffffffffffffffffffffffffffff169060200190929190505050613cf2565b005b3480156107b657600080fd5b506107d560048036038101908080359060200190929190505050613e96565b60405180806020018060200180602001806020018660078111156107f557fe5b60ff16815260200185810385528a818151815260200191508051906020019080838360005b8381101561083557808201518184015260208101905061081a565b50505050905090810190601f1680156108625780820380516001836020036101000a031916815260200191505b50858103845289818151815260200191508051906020019080838360005b8381101561089b578082015181840152602081019050610880565b50505050905090810190601f1680156108c85780820380516001836020036101000a031916815260200191505b50858103835288818151815260200191508051906020019080838360005b838110156109015780820151818401526020810190506108e6565b50505050905090810190601f16801561092e5780820380516001836020036101000a031916815260200191505b50858103825287818151815260200191508051906020019080838360005b8381101561096757808201518184015260208101905061094c565b50505050905090810190601f1680156109945780820380516001836020036101000a031916815260200191505b50995050505050505050505060405180910390f35b3480156109b557600080fd5b506109ea600480360381019080803573ffffffffffffffffffffffffffffffffffffffff1690602001909291905050506141cf565b604051808215151515815260200191505060405180910390f35b348015610a1057600080fd5b50610a19614276565b6040518082815260200191505060405180910390f35b348015610a3b57600080fd5b50610a7d600480360381019080803573ffffffffffffffffffffffffffffffffffffffff169060200190929190803560ff169060200190929190505050614280565b005b348015610a8b57600080fd5b50610b006004803603810190808035906020019082018035906020019190919293919293908035906020019082018035906020019190919293919293908035906020019082018035906020019190919293919293908035906020019082018035906020019190919293919293905050506144c1565b005b348015610b0e57600080fd5b50610b2d60048036038101908080359060200190929190505050614d72565b604051808273ffffffffffffffffffffffffffffffffffffffff1673ffffffffffffffffffffffffffffffffffffffff16815260200191505060405180910390f35b348015610b7b57600080fd5b50610ba8600480360381019080803590602001908201803590602001919091929391929390505050614db5565b005b348015610bb657600080fd5b50610beb600480360381019080803573ffffffffffffffffffffffffffffffffffffffff169060200190929190505050614fc6565b005b6000806000809150600090505b600780549050811015610c8a573373ffffffffffffffffffffffffffffffffffffffff16600782815481101515610c2d57fe5b9060005260206000200160009054906101000a900473ffffffffffffffffffffffffffffffffffffffff1673ffffffffffffffffffffffffffffffffffffffff161415610c7d5760019150610c8a565b8080600101915050610bfa565b811515610cff576040517f08c379a00000000000000000000000000000000000000000000000000000000081526004018080602001828103825260148152602001807f4163636f756e742063616e206e6f7420766f746500000000000000000000000081525060200191505060405180910390fd5b60056007811115610d0c57fe5b610d4786868080601f016020809104026020016040519081016040528093929190818152602001838380828437820191505050505050611901565b6007811115610d5257fe5b141515610ded576040517f08c379a000000000000000000000000000000000000000000000000000000000815260040180806020018281038252602b8152602001807f4e6f6465206e65656420746f20626520696e2050656e64696e6741637469766181526020017f74696f6e2073746174757300000000000000000000000000000000000000000081525060400191505060405180910390fd5b610e2885858080601f0160208091040260200160405190810160405280939291908181526020018383808284378201915050505050506150c3565b9250600015156009600085815260200190815260200160002060003373ffffffffffffffffffffffffffffffffffffffff1673ffffffffffffffffffffffffffffffffffffffff16815260200190815260200160002060009054906101000a900460ff161515141515610f03576040517f08c379a00000000000000000000000000000000000000000000000000000000081526004018080602001828103825260188152602001807f4e6f64652063616e206e6f7420646f75626c6520766f7465000000000000000081525060200191505060405180910390fd5b610f0c836151b9565b610f1583615248565b15611230576002600184815481101515610f2b57fe5b906000526020600020906005020160040160006101000a81548160ff02191690836007811115610f5757fe5b02179055507fd277bd13c43f8ddd20884d02df780044b5faaa1d9e2d4db2d0416fdfcb65d6bf600184815481101515610f8c57fe5b9060005260206000209060050201600001600185815481101515610fac57fe5b9060005260206000209060050201600101600186815481101515610fcc57fe5b9060005260206000209060050201600201600187815481101515610fec57fe5b906000526020600020906005020160030160405180806020018060200180602001806020018581038552898181546001816001161561010002031660029004815260200191508054600181600116156101000203166002900480156110925780601f1061106757610100808354040283529160200191611092565b820191906000526020600020905b81548152906001019060200180831161107557829003601f168201915b50508581038452888181546001816001161561010002031660029004815260200191508054600181600116156101000203166002900480156111155780601f106110ea57610100808354040283529160200191611115565b820191906000526020600020905b8154815290600101906020018083116110f857829003601f168201915b50508581038352878181546001816001161561010002031660029004815260200191508054600181600116156101000203166002900480156111985780601f1061116d57610100808354040283529160200191611198565b820191906000526020600020905b81548152906001019060200180831161117b57829003601f168201915b505085810382528681815460018160011615610100020316600290048152602001915080546001816001161561010002031660029004801561121b5780601f106111f05761010080835404028352916020019161121b565b820191906000526020600020905b8154815290600101906020018083116111fe57829003601f168201915b50509850505050505050505060405180910390a15b5050505050565b6000806000809150600090505b6007805490508110156112d4573373ffffffffffffffffffffffffffffffffffffffff1660078281548110151561127757fe5b9060005260206000200160009054906101000a900473ffffffffffffffffffffffffffffffffffffffff1673ffffffffffffffffffffffffffffffffffffffff1614156112c757600191506112d4565b8080600101915050611244565b811515611349576040517f08c379a00000000000000000000000000000000000000000000000000000000081526004018080602001828103825260148152602001807f4163636f756e742063616e206e6f7420766f746500000000000000000000000081525060200191505060405180910390fd5b6001600781111561135657fe5b61139186868080601f016020809104026020016040519081016040528093929190818152602001838380828437820191505050505050611901565b600781111561139c57fe5b141515611437576040517f08c379a00000000000000000000000000000000000000000000000000000000081526004018080602001828103825260298152602001807f4e6f6465206e65656420746f20626520696e2050656e64696e67417070726f7681526020017f616c20737461747573000000000000000000000000000000000000000000000081525060400191505060405180910390fd5b61147285858080601f0160208091040260200160405190810160405280939291908181526020018383808284378201915050505050506150c3565b9250600015156009600085815260200190815260200160002060003373ffffffffffffffffffffffffffffffffffffffff1673ffffffffffffffffffffffffffffffffffffffff16815260200190815260200160002060009054906101000a900460ff16151514151561154d576040517f08c379a00000000000000000000000000000000000000000000000000000000081526004018080602001828103825260188152602001807f4e6f64652063616e206e6f7420646f75626c6520766f7465000000000000000081525060200191505060405180910390fd5b611556836151b9565b61155f83615248565b1561187a57600260018481548110151561157557fe5b906000526020600020906005020160040160006101000a81548160ff021916908360078111156115a157fe5b02179055507fc6d86deaa3b3cf7c374cfd405aae9f08571fce2bf6ccfe8f98a399cda8960a986001848154811015156115d657fe5b90600052602060002090600502016000016001858154811015156115f657fe5b906000526020600020906005020160010160018681548110151561161657fe5b906000526020600020906005020160020160018781548110151561163657fe5b906000526020600020906005020160030160405180806020018060200180602001806020018581038552898181546001816001161561010002031660029004815260200191508054600181600116156101000203166002900480156116dc5780601f106116b1576101008083540402835291602001916116dc565b820191906000526020600020905b8154815290600101906020018083116116bf57829003601f168201915b505085810384528881815460018160011615610100020316600290048152602001915080546001816001161561010002031660029004801561175f5780601f106117345761010080835404028352916020019161175f565b820191906000526020600020905b81548152906001019060200180831161174257829003601f168201915b50508581038352878181546001816001161561010002031660029004815260200191508054600181600116156101000203166002900480156117e25780601f106117b7576101008083540402835291602001916117e2565b820191906000526020600020905b8154815290600101906020018083116117c557829003601f168201915b50508581038252868181546001816001161561010002031660029004815260200191508054600181600116156101000203166002900480156118655780601f1061183a57610100808354040283529160200191611865565b820191906000526020600020905b81548152906001019060200180831161184857829003601f168201915b50509850505050505050505060405180910390a15b5050505050565b60008060048381548110151561189357fe5b9060005260206000200160000160009054906101000a900473ffffffffffffffffffffffffffffffffffffffff166004848154811015156118d057fe5b9060005260206000200160000160149054906101000a900460ff1691509150915091565b6000600480549050905090565b600081600060026000836040516020018082805190602001908083835b602083101515611943578051825260208201915060208101905060208303925061191e565b6001836020036101000a0380198251168184511680821785525050505050509050019150506040516020818303038152906040526040518082805190602001908083835b6020831015156119ac5780518252602082019150602081019050602083039250611987565b6001836020036101000a0380198251168184511680821785525050505050509050019150506040518091039020600019166000191681526020019081526020016000205414151515611a66576040517f08c379a00000000000000000000000000000000000000000000000000000000081526004018080602001828103825260188152602001807f456e6f6465206973206e6f7420696e20746865206c697374000000000000000081525060200191505060405180910390fd5b6001611a71846150c3565b815481101515611a7d57fe5b906000526020600020906005020160040160009054906101000a900460ff16915050919050565b6000808290806001815401808255809150509060018203906000526020600020016000909192909190916101000a81548173ffffffffffffffffffffffffffffffffffffffff021916908373ffffffffffffffffffffffffffffffffffffffff160217905550507f5c7c83802ef5601aed89f3f4e4ab42298ecf8ac3fe099adad5712fc65ba9676d826000604051808373ffffffffffffffffffffffffffffffffffffffff1673ffffffffffffffffffffffffffffffffffffffff168152602001826003811115611b7157fe5b60ff1681526020019250505060405180910390a160001515600b60009054906101000a900460ff161515141515611c10576040517f08c379a00000000000000000000000000000000000000000000000000000000081526004018080602001828103825260208152602001807f6e6574776f726b206163636f756e747320616c726561647920626f6f7420757081525060200191505060405180910390fd5b600090505b600080549050811015611eff576000600560008084815481101515611c3657fe5b9060005260206000200160009054906101000a900473ffffffffffffffffffffffffffffffffffffffff1673ffffffffffffffffffffffffffffffffffffffff1673ffffffffffffffffffffffffffffffffffffffff168152602001908152602001600020541415611ef257600660008154809291906001019190505550600654600560008084815481101515611cc957fe5b9060005260206000200160009054906101000a900473ffffffffffffffffffffffffffffffffffffffff1673ffffffffffffffffffffffffffffffffffffffff1673ffffffffffffffffffffffffffffffffffffffff1681526020019081526020016000208190555060046040805190810160405280600084815481101515611d4e57fe5b9060005260206000200160009054906101000a900473ffffffffffffffffffffffffffffffffffffffff1673ffffffffffffffffffffffffffffffffffffffff16815260200160006003811115611da157fe5b81525090806001815401808255809150509060018203906000526020600020016000909192909190915060008201518160000160006101000a81548173ffffffffffffffffffffffffffffffffffffffff021916908373ffffffffffffffffffffffffffffffffffffffff16021790555060208201518160000160146101000a81548160ff02191690836003811115611e3657fe5b02179055505050507f5c7c83802ef5601aed89f3f4e4ab42298ecf8ac3fe099adad5712fc65ba9676d600082815481101515611e6e57fe5b9060005260206000200160009054906101000a900473ffffffffffffffffffffffffffffffffffffffff166000604051808373ffffffffffffffffffffffffffffffffffffffff1673ffffffffffffffffffffffffffffffffffffffff168152602001826003811115611edd57fe5b60ff1681526020019250505060405180910390a15b8080600101915050611c15565b5050565b606080606080600080611f15876150c3565b9050600181815481101515611f2657fe5b9060005260206000209060050201600001600182815481101515611f4657fe5b9060005260206000209060050201600101600183815481101515611f6657fe5b9060005260206000209060050201600201600184815481101515611f8657fe5b9060005260206000209060050201600301600185815481101515611fa657fe5b906000526020600020906005020160040160009054906101000a900460ff16848054600181600116156101000203166002900480601f01602080910402602001604051908101604052809291908181526020018280546001816001161561010002031660029004801561205a5780601f1061202f5761010080835404028352916020019161205a565b820191906000526020600020905b81548152906001019060200180831161203d57829003601f168201915b50505050509450838054600181600116156101000203166002900480601f0160208091040260200160405190810160405280929190818152602001828054600181600116156101000203166002900480156120f65780601f106120cb576101008083540402835291602001916120f6565b820191906000526020600020905b8154815290600101906020018083116120d957829003601f168201915b50505050509350828054600181600116156101000203166002900480601f0160208091040260200160405190810160405280929190818152602001828054600181600116156101000203166002900480156121925780601f1061216757610100808354040283529160200191612192565b820191906000526020600020905b81548152906001019060200180831161217557829003601f168201915b50505050509250818054600181600116156101000203166002900480601f01602080910402602001604051908101604052809291908181526020018280546001816001161561010002031660029004801561222e5780601f106122035761010080835404028352916020019161222e565b820191906000526020600020905b81548152906001019060200180831161221157829003601f168201915b50505050509150955095509550955095505091939590929450565b6000806000809150600090505b6007805490508110156122e6573373ffffffffffffffffffffffffffffffffffffffff1660078281548110151561228957fe5b9060005260206000200160009054906101000a900473ffffffffffffffffffffffffffffffffffffffff1673ffffffffffffffffffffffffffffffffffffffff1614156122d957600191506122e6565b8080600101915050612256565b81151561235b576040517f08c379a00000000000000000000000000000000000000000000000000000000081526004018080602001828103825260148152602001807f4163636f756e742063616e206e6f7420766f746500000000000000000000000081525060200191505060405180910390fd5b6003600781111561236857fe5b6123a386868080601f016020809104026020016040519081016040528093929190818152602001838380828437820191505050505050611901565b60078111156123ae57fe5b141515612449576040517f08c379a000000000000000000000000000000000000000000000000000000000815260040180806020018281038252602d8152602001807f4e6f6465206e65656420746f20626520696e2050656e64696e6744656163746981526020017f766174696f6e207374617475730000000000000000000000000000000000000081525060400191505060405180910390fd5b61248485858080601f0160208091040260200160405190810160405280939291908181526020018383808284378201915050505050506150c3565b9250600015156009600085815260200190815260200160002060003373ffffffffffffffffffffffffffffffffffffffff1673ffffffffffffffffffffffffffffffffffffffff16815260200190815260200160002060009054906101000a900460ff16151514151561255f576040517f08c379a00000000000000000000000000000000000000000000000000000000081526004018080602001828103825260188152602001807f4e6f64652063616e206e6f7420646f75626c6520766f7465000000000000000081525060200191505060405180910390fd5b612568836151b9565b61257183615248565b1561288c57600460018481548110151561258757fe5b906000526020600020906005020160040160006101000a81548160ff021916908360078111156125b357fe5b02179055507fd5fa0ecdea15b332dd0a270c65234bc4aee212edf2ed62eb2fd182ef55ca98a16001848154811015156125e857fe5b906000526020600020906005020160000160018581548110151561260857fe5b906000526020600020906005020160010160018681548110151561262857fe5b906000526020600020906005020160020160018781548110151561264857fe5b906000526020600020906005020160030160405180806020018060200180602001806020018581038552898181546001816001161561010002031660029004815260200191508054600181600116156101000203166002900480156126ee5780601f106126c3576101008083540402835291602001916126ee565b820191906000526020600020905b8154815290600101906020018083116126d157829003601f168201915b50508581038452888181546001816001161561010002031660029004815260200191508054600181600116156101000203166002900480156127715780601f1061274657610100808354040283529160200191612771565b820191906000526020600020905b81548152906001019060200180831161275457829003601f168201915b50508581038352878181546001816001161561010002031660029004815260200191508054600181600116156101000203166002900480156127f45780601f106127c9576101008083540402835291602001916127f4565b820191906000526020600020905b8154815290600101906020018083116127d757829003601f168201915b50508581038252868181546001816001161561010002031660029004815260200191508054600181600116156101000203166002900480156128775780601f1061284c57610100808354040283529160200191612877565b820191906000526020600020905b81548152906001019060200180831161285a57829003601f168201915b50509850505050505050505060405180910390a15b5050505050565b6000801515600b60009054906101000a900460ff161515141515612945576040517f08c379a00000000000000000000000000000000000000000000000000000000081526004018080602001828103825260278152602001807f496e76616c69642063616c6c3a204e6574776f726b20626f6f7420757020636f81526020017f6d706c657465640000000000000000000000000000000000000000000000000081525060400191505060405180910390fd5b6001600b60006101000a81548160ff021916908315150217905550600b60009054906101000a900460ff16905090565b600082828080601f016020809104026020016040519081016040528093929190818152602001838380828437820191505050505050600060026000836040516020018082805190602001908083835b6020831015156129e957805182526020820191506020810190506020830392506129c4565b6001836020036101000a0380198251168184511680821785525050505050509050019150506040516020818303038152906040526040518082805190602001908083835b602083101515612a525780518252602082019150602081019050602083039250612a2d565b6001836020036101000a0380198251168184511680821785525050505050509050019150506040518091039020600019166000191681526020019081526020016000205414151515612b0c576040517f08c379a00000000000000000000000000000000000000000000000000000000081526004018080602001828103825260188152602001807f456e6f6465206973206e6f7420696e20746865206c697374000000000000000081525060200191505060405180910390fd5b612b14615289565b15612d165760026007811115612b2657fe5b612b6185858080601f016020809104026020016040519081016040528093929190818152602001838380828437820191505050505050611901565b6007811115612b6c57fe5b141515612c07576040517f08c379a00000000000000000000000000000000000000000000000000000000081526004018080602001828103825260228152602001807f4e6f6465206e65656420746f20626520696e20417070726f766564207374617481526020017f757300000000000000000000000000000000000000000000000000000000000081525060400191505060405180910390fd5b612c4284848080601f0160208091040260200160405190810160405280939291908181526020018383808284378201915050505050506150c3565b915060026008600084815260200190815260200160002060006101000a81548160ff02191690836007811115612c7457fe5b02179055506003600183815481101515612c8a57fe5b906000526020600020906005020160040160006101000a81548160ff02191690836007811115612cb657fe5b0217905550612cc4826152a9565b7f2b5689b33f48f1dcbda2084e130a9bee7b3bf14dc767ea74cbdf3e5fffb118e48484604051808060200182810382528484828181526020019250808284378201915050935050505060405180910390a15b50505050565b6000806000809150600090505b600780549050811015612db9573373ffffffffffffffffffffffffffffffffffffffff16600782815481101515612d5c57fe5b9060005260206000200160009054906101000a900473ffffffffffffffffffffffffffffffffffffffff1673ffffffffffffffffffffffffffffffffffffffff161415612dac5760019150612db9565b8080600101915050612d29565b811515612e2e576040517f08c379a00000000000000000000000000000000000000000000000000000000081526004018080602001828103825260148152602001807f4163636f756e742063616e206e6f7420766f746500000000000000000000000081525060200191505060405180910390fd5b60016007811115612e3b57fe5b612e7686868080601f016020809104026020016040519081016040528093929190818152602001838380828437820191505050505050611901565b6007811115612e8157fe5b1480612edd575060056007811115612e9557fe5b612ed086868080601f016020809104026020016040519081016040528093929190818152602001838380828437820191505050505050611901565b6007811115612edb57fe5b145b80612f38575060036007811115612ef057fe5b612f2b86868080601f016020809104026020016040519081016040528093929190818152602001838380828437820191505050505050611901565b6007811115612f3657fe5b145b80612f93575060066007811115612f4b57fe5b612f8686868080601f016020809104026020016040519081016040528093929190818152602001838380828437820191505050505050611901565b6007811115612f9157fe5b145b1515613007576040517f08c379a000000000000000000000000000000000000000000000000000000000815260040180806020018281038252601e8152602001807f4e6f646520737461747573206d75737420626520696e2070656e64696e67000081525060200191505060405180910390fd5b61304285858080601f0160208091040260200160405190810160405280939291908181526020018383808284378201915050505050506150c3565b92506008600084815260200190815260200160002060009054906101000a900460ff1660018481548110151561307457fe5b906000526020600020906005020160040160006101000a81548160ff021916908360078111156130a057fe5b02179055507f94e103729ee0a5bdbfe00e23d13d932dca50dd85b3ad4d85d1299a81583dda938585604051808060200182810382528484828181526020019250808284378201915050935050505060405180910390a15050505050565b6000806000809150600090505b60078054905081101561319a573373ffffffffffffffffffffffffffffffffffffffff1660078281548110151561313d57fe5b9060005260206000200160009054906101000a900473ffffffffffffffffffffffffffffffffffffffff1673ffffffffffffffffffffffffffffffffffffffff16141561318d576001915061319a565b808060010191505061310a565b81151561320f576040517f08c379a00000000000000000000000000000000000000000000000000000000081526004018080602001828103825260148152602001807f4163636f756e742063616e206e6f7420766f746500000000000000000000000081525060200191505060405180910390fd5b6006600781111561321c57fe5b61325786868080601f016020809104026020016040519081016040528093929190818152602001838380828437820191505050505050611901565b600781111561326257fe5b1415156132fd576040517f08c379a000000000000000000000000000000000000000000000000000000000815260040180806020018281038252602d8152602001807f4e6f6465206e65656420746f20626520696e2050656e64696e67426c61636b6c81526020017f697374696e67207374617475730000000000000000000000000000000000000081525060400191505060405180910390fd5b61333885858080601f0160208091040260200160405190810160405280939291908181526020018383808284378201915050505050506150c3565b9250600015156009600085815260200190815260200160002060003373ffffffffffffffffffffffffffffffffffffffff1673ffffffffffffffffffffffffffffffffffffffff16815260200190815260200160002060009054906101000a900460ff161515141515613413576040517f08c379a00000000000000000000000000000000000000000000000000000000081526004018080602001828103825260188152602001807f4e6f64652063616e206e6f7420646f75626c6520766f7465000000000000000081525060200191505060405180910390fd5b60016009600085815260200190815260200160002060003373ffffffffffffffffffffffffffffffffffffffff1673ffffffffffffffffffffffffffffffffffffffff16815260200190815260200160002060006101000a81548160ff021916908315150217905550600a6000848152602001908152602001600020600081548092919060010191905055506134a883615248565b156137c35760076001848154811015156134be57fe5b906000526020600020906005020160040160006101000a81548160ff021916908360078111156134ea57fe5b02179055507fe1b239bf9d5854aeca74dfeac25d6ce470230bdb5f0eec48713c4375becfe97e60018481548110151561351f57fe5b906000526020600020906005020160000160018581548110151561353f57fe5b906000526020600020906005020160010160018681548110151561355f57fe5b906000526020600020906005020160020160018781548110151561357f57fe5b906000526020600020906005020160030160405180806020018060200180602001806020018581038552898181546001816001161561010002031660029004815260200191508054600181600116156101000203166002900480156136255780601f106135fa57610100808354040283529160200191613625565b820191906000526020600020905b81548152906001019060200180831161360857829003601f168201915b50508581038452888181546001816001161561010002031660029004815260200191508054600181600116156101000203166002900480156136a85780601f1061367d576101008083540402835291602001916136a8565b820191906000526020600020905b81548152906001019060200180831161368b57829003601f168201915b505085810383528781815460018160011615610100020316600290048152602001915080546001816001161561010002031660029004801561372b5780601f106137005761010080835404028352916020019161372b565b820191906000526020600020905b81548152906001019060200180831161370e57829003601f168201915b50508581038252868181546001816001161561010002031660029004815260200191508054600181600116156101000203166002900480156137ae5780601f10613783576101008083540402835291602001916137ae565b820191906000526020600020905b81548152906001019060200180831161379157829003601f168201915b50509850505050505050505060405180910390a15b5050505050565b6000600b60009054906101000a900460ff16905090565b60006137eb615289565b15613cda5761382b89898080601f0160208091040260200160405190810160405280939291908181526020018383808284378201915050505050506150c3565b90506000600260008b8b604051602001808383808284378201915050925050506040516020818303038152906040526040518082805190602001908083835b60208310151561388f578051825260208201915060208101905060208303925061386a565b6001836020036101000a038019825116818451168082178552505050505050905001915050604051809103902060001916600019168152602001908152602001600020541415156139bf576001818154811015156138e957fe5b906000526020600020906005020160040160009054906101000a900460ff166008600083815260200190815260200160002060006101000a81548160ff0219169083600781111561393657fe5b0217905550600660018281548110151561394c57fe5b906000526020600020906005020160040160006101000a81548160ff0219169083600781111561397857fe5b02179055506139b889898080601f0160208091040260200160405190810160405280939291908181526020018383808284378201915050505050506150c3565b9050613c7f565b600360008154809291906001019190505550600354600260008b8b604051602001808383808284378201915050925050506040516020818303038152906040526040518082805190602001908083835b602083101515613a345780518252602082019150602081019050602083039250613a0f565b6001836020036101000a03801982511681845116808217855250505050505090500191505060405180910390206000191660001916815260200190815260200160002081905550600160a0604051908101604052808b8b8080601f016020809104026020016040519081016040528093929190818152602001838380828437820191505050505050815260200189898080601f016020809104026020016040519081016040528093929190818152602001838380828437820191505050505050815260200187878080601f016020809104026020016040519081016040528093929190818152602001838380828437820191505050505050815260200185858080601f016020809104026020016040519081016040528093929190818152602001838380828437820191505050505050815260200160066007811115613b7657fe5b815250908060018154018082558091505090600182039060005260206000209060050201600090919290919091506000820151816000019080519060200190613bc09291906153d4565b506020820151816001019080519060200190613bdd9291906153d4565b506040820151816002019080519060200190613bfa9291906153d4565b506060820151816003019080519060200190613c179291906153d4565b5060808201518160040160006101000a81548160ff02191690836007811115613c3c57fe5b021790555050505060006008600083815260200190815260200160002060006101000a81548160ff02191690836007811115613c7457fe5b021790555060035490505b613c88816152a9565b7fb249ebebf429f1c79f3c9663998b3e22d45f242de6527c4a95e41d4d28115d748989604051808060200182810382528484828181526020019250808284378201915050935050505060405180910390a15b505050505050505050565b6000600780549050905090565b600080600091505b600780549050821015613e91578273ffffffffffffffffffffffffffffffffffffffff16600783815481101515613d2d57fe5b9060005260206000200160009054906101000a900473ffffffffffffffffffffffffffffffffffffffff1673ffffffffffffffffffffffffffffffffffffffff161415613e84578190505b600160078054905003811015613e2957600760018201815481101515613d9a57fe5b9060005260206000200160009054906101000a900473ffffffffffffffffffffffffffffffffffffffff16600782815481101515613dd457fe5b9060005260206000200160006101000a81548173ffffffffffffffffffffffffffffffffffffffff021916908373ffffffffffffffffffffffffffffffffffffffff1602179055508080600101915050613d78565b6007600160078054905003815481101515613e4057fe5b9060005260206000200160006101000a81549073ffffffffffffffffffffffffffffffffffffffff02191690556007805480919060019003613e829190615454565b505b8180600101925050613cfa565b505050565b6060806060806000600186815481101515613ead57fe5b9060005260206000209060050201600001600187815481101515613ecd57fe5b9060005260206000209060050201600101600188815481101515613eed57fe5b9060005260206000209060050201600201600189815481101515613f0d57fe5b906000526020600020906005020160030160018a815481101515613f2d57fe5b906000526020600020906005020160040160009054906101000a900460ff16848054600181600116156101000203166002900480601f016020809104026020016040519081016040528092919081815260200182805460018160011615610100020316600290048015613fe15780601f10613fb657610100808354040283529160200191613fe1565b820191906000526020600020905b815481529060010190602001808311613fc457829003601f168201915b50505050509450838054600181600116156101000203166002900480601f01602080910402602001604051908101604052809291908181526020018280546001816001161561010002031660029004801561407d5780601f106140525761010080835404028352916020019161407d565b820191906000526020600020905b81548152906001019060200180831161406057829003601f168201915b50505050509350828054600181600116156101000203166002900480601f0160208091040260200160405190810160405280929190818152602001828054600181600116156101000203166002900480156141195780601f106140ee57610100808354040283529160200191614119565b820191906000526020600020905b8154815290600101906020018083116140fc57829003601f168201915b50505050509250818054600181600116156101000203166002900480601f0160208091040260200160405190810160405280929190818152602001828054600181600116156101000203166002900480156141b55780601f1061418a576101008083540402835291602001916141b5565b820191906000526020600020905b81548152906001019060200180831161419857829003601f168201915b505050505091509450945094509450945091939590929450565b6000806000809150600090505b60078054905081101561426c578373ffffffffffffffffffffffffffffffffffffffff1660078281548110151561420f57fe5b9060005260206000200160009054906101000a900473ffffffffffffffffffffffffffffffffffffffff1673ffffffffffffffffffffffffffffffffffffffff16141561425f576001915061426c565b80806001019150506141dc565b8192505050919050565b6000600354905090565b600061428b83615388565b90506000600560008573ffffffffffffffffffffffffffffffffffffffff1673ffffffffffffffffffffffffffffffffffffffff1681526020019081526020016000205414151561431857816004828154811015156142e657fe5b9060005260206000200160000160146101000a81548160ff0219169083600381111561430e57fe5b0217905550614443565b600660008154809291906001019190505550600654600560008573ffffffffffffffffffffffffffffffffffffffff1673ffffffffffffffffffffffffffffffffffffffff16815260200190815260200160002081905550600460408051908101604052808573ffffffffffffffffffffffffffffffffffffffff1681526020018460038111156143a557fe5b81525090806001815401808255809150509060018203906000526020600020016000909192909190915060008201518160000160006101000a81548173ffffffffffffffffffffffffffffffffffffffff021916908373ffffffffffffffffffffffffffffffffffffffff16021790555060208201518160000160146101000a81548160ff0219169083600381111561443a57fe5b02179055505050505b7f5c7c83802ef5601aed89f3f4e4ab42298ecf8ac3fe099adad5712fc65ba9676d8383604051808373ffffffffffffffffffffffffffffffffffffffff1673ffffffffffffffffffffffffffffffffffffffff1681526020018260038111156144a857fe5b60ff1681526020019250505060405180910390a1505050565b87878080601f016020809104026020016040519081016040528093929190818152602001838380828437820191505050505050600060026000836040516020018082805190602001908083835b602083101515614533578051825260208201915060208101905060208303925061450e565b6001836020036101000a0380198251168184511680821785525050505050509050019150506040516020818303038152906040526040518082805190602001908083835b60208310151561459c5780518252602082019150602081019050602083039250614577565b6001836020036101000a03801982511681845116808217855250505050505090500191505060405180910390206000191660001916815260200190815260200160002054148061460a5750600060078111156145f457fe5b6145fd82611901565b600781111561460857fe5b145b151561467e576040517f08c379a00000000000000000000000000000000000000000000000000000000081526004018080602001828103825260148152602001807f456e6f646520697320696e20746865206c69737400000000000000000000000081525060200191505060405180910390fd5b600b60009054906101000a900460ff16151561491e57600360008154809291906001019190505550600354600260008b8b604051602001808383808284378201915050925050506040516020818303038152906040526040518082805190602001908083835b60208310151561470957805182526020820191506020810190506020830392506146e4565b6001836020036101000a03801982511681845116808217855250505050505090500191505060405180910390206000191660001916815260200190815260200160002081905550600160a0604051908101604052808b8b8080601f016020809104026020016040519081016040528093929190818152602001838380828437820191505050505050815260200189898080601f016020809104026020016040519081016040528093929190818152602001838380828437820191505050505050815260200187878080601f016020809104026020016040519081016040528093929190818152602001838380828437820191505050505050815260200185858080601f01602080910402602001604051908101604052809392919081815260200183838082843782019150505050505081526020016002600781111561484b57fe5b8152509080600181540180825580915050906001820390600052602060002090600502016000909192909190915060008201518160000190805190602001906148959291906153d4565b5060208201518160010190805190602001906148b29291906153d4565b5060408201518160020190805190602001906148cf9291906153d4565b5060608201518160030190805190602001906148ec9291906153d4565b5060808201518160040160006101000a81548160ff0219169083600781111561491157fe5b0217905550505050614d67565b614926615289565b15614d66576000600260008b8b604051602001808383808284378201915050925050506040516020818303038152906040526040518082805190602001908083835b60208310151561498d5780518252602082019150602081019050602083039250614968565b6001836020036101000a03801982511681845116808217855250505050505090500191505060405180910390206000191660001916815260200190815260200160002054141515614a4c57600060086000614a198c8c8080601f0160208091040260200160405190810160405280939291908181526020018383808284378201915050505050506150c3565b815260200190815260200160002060006101000a81548160ff02191690836007811115614a4257fe5b0217905550614d09565b600360008154809291906001019190505550600354600260008b8b604051602001808383808284378201915050925050506040516020818303038152906040526040518082805190602001908083835b602083101515614ac15780518252602082019150602081019050602083039250614a9c565b6001836020036101000a03801982511681845116808217855250505050505090500191505060405180910390206000191660001916815260200190815260200160002081905550600160a0604051908101604052808b8b8080601f016020809104026020016040519081016040528093929190818152602001838380828437820191505050505050815260200189898080601f016020809104026020016040519081016040528093929190818152602001838380828437820191505050505050815260200187878080601f016020809104026020016040519081016040528093929190818152602001838380828437820191505050505050815260200185858080601f016020809104026020016040519081016040528093929190818152602001838380828437820191505050505050815260200160016007811115614c0357fe5b815250908060018154018082558091505090600182039060005260206000209060050201600090919290919091506000820151816000019080519060200190614c4d9291906153d4565b506020820151816001019080519060200190614c6a9291906153d4565b506040820151816002019080519060200190614c879291906153d4565b506060820151816003019080519060200190614ca49291906153d4565b5060808201518160040160006101000a81548160ff02191690836007811115614cc957fe5b0217905550505050600060086000600354815260200190815260200160002060006101000a81548160ff02191690836007811115614d0357fe5b02179055505b614d146003546152a9565b7faddedf3fcf588a85e0b0c3210c30da3f5597ae35221859f7e19427397a2ba80a8989604051808060200182810382528484828181526020019250808284378201915050935050505060405180910390a15b5b505050505050505050565b6000600782815481101515614d8357fe5b9060005260206000200160009054906101000a900473ffffffffffffffffffffffffffffffffffffffff169050919050565b6000614dbf615289565b15614fc15760046007811115614dd157fe5b614e0c84848080601f016020809104026020016040519081016040528093929190818152602001838380828437820191505050505050611901565b6007811115614e1757fe5b141515614eb2576040517f08c379a00000000000000000000000000000000000000000000000000000000081526004018080602001828103825260258152602001807f4e6f6465206e65656420746f20626520696e204465616374697661746564207381526020017f746174757300000000000000000000000000000000000000000000000000000081525060400191505060405180910390fd5b614eed83838080601f0160208091040260200160405190810160405280939291908181526020018383808284378201915050505050506150c3565b905060046008600083815260200190815260200160002060006101000a81548160ff02191690836007811115614f1f57fe5b02179055506005600182815481101515614f3557fe5b906000526020600020906005020160040160006101000a81548160ff02191690836007811115614f6157fe5b0217905550614f6f816152a9565b7f7b961104d9e9db7d30803aff3fa117bc41799d2faa2d2e339cf1a1f3513b0eef8383604051808060200182810382528484828181526020019250808284378201915050935050505060405180910390a15b505050565b60008090505b600780549050811015615058578173ffffffffffffffffffffffffffffffffffffffff16600782815481101515614fff57fe5b9060005260206000200160009054906101000a900473ffffffffffffffffffffffffffffffffffffffff1673ffffffffffffffffffffffffffffffffffffffff16141561504b576150bf565b8080600101915050614fcc565b60078290806001815401808255809150509060018203906000526020600020016000909192909190916101000a81548173ffffffffffffffffffffffffffffffffffffffff021916908373ffffffffffffffffffffffffffffffffffffffff160217905550505b5050565b6000600160026000846040516020018082805190602001908083835b60208310151561510457805182526020820191506020810190506020830392506150df565b6001836020036101000a0380198251168184511680821785525050505050509050019150506040516020818303038152906040526040518082805190602001908083835b60208310151561516d5780518252602082019150602081019050602083039250615148565b6001836020036101000a03801982511681845116808217855250505050505090500191505060405180910390206000191660001916815260200190815260200160002054039050919050565b600a60008281526020019081526020016000206000815480929190600101919050555060016009600083815260200190815260200160002060003373ffffffffffffffffffffffffffffffffffffffff1673ffffffffffffffffffffffffffffffffffffffff16815260200190815260200160002060006101000a81548160ff02191690831515021790555050565b60008060009050600260078054905081151561526057fe5b04600a600085815260200190815260200160002054111561528057600190505b80915050919050565b60008060078054905014156152a157600090506152a6565b600190505b90565b600080600a600084815260200190815260200160002081905550600090505b6007805490508110156153845760006009600084815260200190815260200160002060006007848154811015156152fb57fe5b9060005260206000200160009054906101000a900473ffffffffffffffffffffffffffffffffffffffff1673ffffffffffffffffffffffffffffffffffffffff1673ffffffffffffffffffffffffffffffffffffffff16815260200190815260200160002060006101000a81548160ff02191690831515021790555080806001019150506152c8565b5050565b60006001600560008473ffffffffffffffffffffffffffffffffffffffff1673ffffffffffffffffffffffffffffffffffffffff16815260200190815260200160002054039050919050565b828054600181600116156101000203166002900490600052602060002090601f016020900481019282601f1061541557805160ff1916838001178555615443565b82800160010185558215615443579182015b82811115615442578251825591602001919060010190615427565b5b5090506154509190615480565b5090565b81548183558181111561547b5781836000526020600020918201910161547a9190615480565b5b505050565b6154a291905b8082111561549e576000816000905550600101615486565b5090565b905600a165627a7a72305820d894b9785cefe8580cd6f0913700cf683d9fddd8f3b6efc6cd10b512d68df40d0029",
  "source": "pragma solidity ^0.4.23;\n\ncontract Permissions {\n  address[] initialAcctList;\n  // enum and struct declaration\n  enum NodeStatus {NotInList, PendingApproval, Approved, PendingDeactivation, Deactivated, PendingActivation, PendingBlacklisting, Blacklisted }\n  struct NodeDetails {\n    string enodeId; //e.g. 127.0.0.1:20005\n    string ipAddrPort;\n    string discPort;\n    string raftPort;\n    NodeStatus status;\n  }\n\n  enum AccountAccess { FullAccess, ReadOnly, Transact, ContractDeploy }\n  struct AccountAccessDetails {\n    address acctId;\n    AccountAccess acctAccess;\n  }\n  // use an array to store node details\n  // if we want to list all node one day, mapping is not capable\n  NodeDetails[] private nodeList;\n\n  // use a mapping of enodeid to array index to track node\n  mapping (bytes32 => uint) private nodeIdToIndex;\n  // keep track of node number\n  uint private numberOfNodes;\n\n  AccountAccessDetails[] private acctAccessList;\n\n  mapping (address => uint) private acctToIndex;\n  uint private numberOfAccts;\n  // use an array to store account details\n  // if we want to list all account one day, mapping is not capable\n  address[] private voterAcctList;\n\n  // store pre pending status, use for cancelPendingOperation\n  mapping(uint => NodeStatus) private prependingStatus;\n  // store node approval, deactivation and blacklisting vote status (prevent double vote)\n  mapping (uint => mapping (address => bool)) private voteStatus;\n  // valid vote count\n  mapping (uint => uint) private voteCount;\n\n  // checks if first time network boot up has happened or not\n  bool private networkBoot = false;\n\n  // node permission events for new node propose\n  event NodeProposed(string _enodeId);\n  event NodeApproved(string _enodeId, string _ipAddrPort, string _discPort, string _raftPort);\n\n  // node permission events for node decativation\n  event NodePendingDeactivation (string _enodeId);\n  event NodeDeactivated(string _enodeId, string _ipAddrPort, string _discPort, string _raftPort);\n\n  // node permission events for node activation\n  event NodePendingActivation(string _enodeId);\n  event NodeActivated(string _enodeId, string _ipAddrPort, string _discPort, string _raftPort);\n\n  // node permission events for node blacklist\n  event NodePendingBlacklist(string _enodeId);\n  event NodeBlacklisted(string _enodeId, string _ipAddrPort, string _discPort, string _raftPort);\n\n  // pending operation cancelled\n  event PendingOperationCancelled(string _enodeId);\n\n  // account permission events\n  event AccountAccessModified(address _address, AccountAccess _access);\n\n  // Checks if the given enode exists\n  modifier enodeInList(string _enodeId)\n  {\n    require(nodeIdToIndex[keccak256(abi.encodePacked(_enodeId))] != 0, \"Enode is not in the list\");\n    _;\n  }\n\n  // Checks if the given enode does not exists\n  modifier enodeNotInList(string _enodeId)\n  {\n    require(nodeIdToIndex[keccak256(abi.encodePacked(_enodeId))] == 0 || getNodeStatus(_enodeId) == NodeStatus.NotInList, \"Enode is in the list\");\n    _;\n  }\n\n  // Checks if the account can vote\n  modifier canVote()\n  {\n    bool flag = false;\n    for (uint i=0; i<voterAcctList.length; i++){\n      if (voterAcctList[i] == msg.sender){\n        flag = true;\n        break;\n      }\n    }\n    require(flag, \"Account can not vote\");\n    _;\n  }\n\n  /* public and external functions */\n  // view functions\n\n  // Get number of voters\n  function getNumberOfVoters() public view returns (uint)\n  {\n    return voterAcctList.length;\n  }\n\n  // Get voter\n  function getVoter(uint i) public view returns (address _addr)\n  {\n  \treturn voterAcctList[i];\n  }\n\n  // Get number of nodes\n  function getNetworkBootStatus() public view returns (bool)\n  {\n    return networkBoot;\n  }\n\n  // Get node details given enode Id\n  function getNodeDetails(string enodeId) public view returns (string _enodeId, string _ipAddrPort, string _discPort, string _raftPort, NodeStatus _nodeStatus)\n  {\n    uint nodeIndex = getNodeIndex(enodeId);\n    return (nodeList[nodeIndex].enodeId, nodeList[nodeIndex].ipAddrPort, nodeList[nodeIndex].discPort, nodeList[nodeIndex].raftPort, nodeList[nodeIndex].status);\n  }\n  // Get node details given index\n  function getNodeDetailsFromIndex(uint nodeIndex) public view returns (string _enodeId, string _ipAddrPort, string _discPort, string _raftPort, NodeStatus _nodeStatus)\n  {\n    return (nodeList[nodeIndex].enodeId, nodeList[nodeIndex].ipAddrPort, nodeList[nodeIndex].discPort, nodeList[nodeIndex].raftPort, nodeList[nodeIndex].status);\n  }\n  // Get number of nodes\n  function getNumberOfNodes() public view returns (uint)\n  {\n    return numberOfNodes;\n  }\n\n  // Get account details given index\n  function getAccountDetails(uint acctIndex) public view returns (address _acct, AccountAccess _acctAccess)\n  {\n    return (acctAccessList[acctIndex].acctId, acctAccessList[acctIndex].acctAccess);\n  }\n\n  // Get number of accounts and voting accounts\n  function getNumberOfAccounts() public view returns (uint)\n  {\n    return acctAccessList.length;\n  }\n  // Get node status by enode id\n  function getNodeStatus(string _enodeId) public view enodeInList(_enodeId) returns (NodeStatus)\n  {\n    return nodeList[getNodeIndex(_enodeId)].status;\n  }\n\n  function isVoter(address _acctid) external view returns (bool)\n  {\n    bool flag = false;\n    for (uint i=0; i<voterAcctList.length; i++){\n      if (voterAcctList[i] == _acctid){\n        flag = true;\n        break;\n      }\n    }\n    return flag;\n  }\n\n  // update the networ boot status as true\n  function updateNetworkBootStatus() external returns (bool)\n  {\n    require (networkBoot == false, \"Invalid call: Network boot up completed\");\n    networkBoot = true;\n    return networkBoot;\n  }\n\n  function initNodeVoteStatus(uint nodeIndex) internal {\n    voteCount[nodeIndex] = 0;\n    for (uint i = 0; i < voterAcctList.length; i++){\n      voteStatus[nodeIndex][voterAcctList[i]] = false;\n    }\n  }\n\n  function updateVoteStatus(uint nodeIndex) internal {\n    voteCount[nodeIndex]++;\n    voteStatus[nodeIndex][msg.sender] = true;\n  }\n\n  function checkEnoughVotes(uint nodeIndex) internal view returns (bool) {\n    bool approvalStatus = false;\n    if (voteCount[nodeIndex] > voterAcctList.length / 2){\n      approvalStatus = true;\n    }\n    return approvalStatus;\n  }\n\n  // propose a new node to the network\n  function proposeNode(string _enodeId, string _ipAddrPort, string _discPort, string _raftPort) external enodeNotInList(_enodeId)\n  {\n    if (!(networkBoot)){\n      numberOfNodes++;\n      nodeIdToIndex[keccak256(abi.encodePacked(_enodeId))] = numberOfNodes;\n      nodeList.push(NodeDetails(_enodeId, _ipAddrPort,_discPort, _raftPort, NodeStatus.Approved));\n    }\n    else {\n      if (checkVotingAccountExist()){\n        if (nodeIdToIndex[keccak256(abi.encodePacked(_enodeId))] != 0){\n          prependingStatus[getNodeIndex(_enodeId)] = NodeStatus.NotInList;\n        } else {\n          // increment node number, add node to the list\n          numberOfNodes++;\n          nodeIdToIndex[keccak256(abi.encodePacked(_enodeId))] = numberOfNodes;\n          nodeList.push(NodeDetails(_enodeId, _ipAddrPort,_discPort, _raftPort, NodeStatus.PendingApproval));\n          prependingStatus[numberOfNodes] = NodeStatus.NotInList;\n        }\n\n        // add voting status, numberOfNodes is the index of current proposed node\n        initNodeVoteStatus(numberOfNodes);\n        // emit event\n        emit NodeProposed(_enodeId);\n      }\n    }\n  }\n\n  // Adds a node to the nodeList mapping and emits node added event if successfully and node exists event of node is already present\n  function approveNode(string _enodeId) external canVote\n  {\n      require(getNodeStatus(_enodeId) == NodeStatus.PendingApproval, \"Node need to be in PendingApproval status\");\n      uint nodeIndex = getNodeIndex(_enodeId);\n      require(voteStatus[nodeIndex][msg.sender] == false, \"Node can not double vote\");\n      // vote node\n      updateVoteStatus(nodeIndex);\n      // emit event\n      // check if node vote reach majority\n      if (checkEnoughVotes(nodeIndex)) {\n        nodeList[nodeIndex].status = NodeStatus.Approved;\n        emit NodeApproved(nodeList[nodeIndex].enodeId, nodeList[nodeIndex].ipAddrPort, nodeList[nodeIndex].discPort, nodeList[nodeIndex].raftPort);\n      }\n  }\n\n  // Propose a node for deactivation from network\n  function proposeDeactivation(string _enodeId) external enodeInList(_enodeId)\n  {\n    if (checkVotingAccountExist()){\n      require(getNodeStatus(_enodeId) == NodeStatus.Approved, \"Node need to be in Approved status\");\n      uint nodeIndex = getNodeIndex(_enodeId);\n      prependingStatus[nodeIndex] = NodeStatus.Approved;\n      nodeList[nodeIndex].status = NodeStatus.PendingDeactivation;\n      // add voting status, numberOfNodes is the index of current proposed node\n      initNodeVoteStatus(nodeIndex);\n      // emit event\n      emit NodePendingDeactivation(_enodeId);\n    }\n  }\n\n  //deactivates a given Enode and emits the decativation event\n  function deactivateNode(string _enodeId) external canVote\n  {\n    require(getNodeStatus(_enodeId) == NodeStatus.PendingDeactivation, \"Node need to be in PendingDeactivation status\");\n    uint nodeIndex = getNodeIndex(_enodeId);\n    require(voteStatus[nodeIndex][msg.sender] == false, \"Node can not double vote\");\n    // vote node\n    updateVoteStatus(nodeIndex);\n    // emit event\n    // check if node vote reach majority\n    if (checkEnoughVotes(nodeIndex)) {\n      nodeList[nodeIndex].status = NodeStatus.Deactivated;\n      emit NodeDeactivated(nodeList[nodeIndex].enodeId, nodeList[nodeIndex].ipAddrPort, nodeList[nodeIndex].discPort, nodeList[nodeIndex].raftPort);\n      }\n  }\n\n  // Propose node for blacklisting\n  function proposeNodeActivation(string _enodeId) external\n  {\n    if (checkVotingAccountExist()){\n      require(getNodeStatus(_enodeId) == NodeStatus.Deactivated, \"Node need to be in Deactivated status\");\n      uint nodeIndex = getNodeIndex(_enodeId);\n      prependingStatus[nodeIndex] = NodeStatus.Deactivated;\n      nodeList[nodeIndex].status = NodeStatus.PendingActivation;\n      // add voting status, numberOfNodes is the index of current proposed node\n      initNodeVoteStatus(nodeIndex);\n      // emit event\n      emit NodePendingActivation(_enodeId);\n    }\n  }\n\n  //deactivates a given Enode and emits the decativation event\n  function activateNode(string _enodeId) external canVote\n  {\n    require(getNodeStatus(_enodeId) == NodeStatus.PendingActivation, \"Node need to be in PendingActivation status\");\n    uint nodeIndex = getNodeIndex(_enodeId);\n    require(voteStatus[nodeIndex][msg.sender] == false, \"Node can not double vote\");\n    // vote node\n    updateVoteStatus(nodeIndex);\n    // emit event\n    // check if node vote reach majority\n    if (checkEnoughVotes(nodeIndex)) {\n      nodeList[nodeIndex].status = NodeStatus.Approved;\n      emit NodeActivated(nodeList[nodeIndex].enodeId, nodeList[nodeIndex].ipAddrPort, nodeList[nodeIndex].discPort, nodeList[nodeIndex].raftPort);\n    }\n  }\n\n  // Propose node for blacklisting\n  function proposeNodeBlacklisting(string _enodeId, string _ipAddrPort, string _discPort, string _raftPort) external\n  {\n    if (checkVotingAccountExist()){\n      uint nodeIndex = getNodeIndex(_enodeId);\n      // check if node is in the nodeList\n      if (nodeIdToIndex[keccak256(abi.encodePacked(_enodeId))] != 0){\n        // no matter what status the node is in, vote will reset and node status change to PendingBlacklisting\n        prependingStatus[nodeIndex] = nodeList[nodeIndex].status;\n        nodeList[nodeIndex].status = NodeStatus.PendingBlacklisting;\n        nodeIndex = getNodeIndex(_enodeId);\n      } else {\n        // increment node number, add node to the list\n        numberOfNodes++;\n        nodeIdToIndex[keccak256(abi.encodePacked(_enodeId))] = numberOfNodes;\n        nodeList.push(NodeDetails(_enodeId, _ipAddrPort,_discPort, _raftPort, NodeStatus.PendingBlacklisting));\n        prependingStatus[nodeIndex] = NodeStatus.NotInList;\n        nodeIndex = numberOfNodes;\n      }\n      // add voting status, numberOfNodes is the index of current proposed node\n      initNodeVoteStatus(nodeIndex);\n      // emit event\n      emit NodePendingBlacklist(_enodeId);\n    }\n  }\n\n  //Approve node blacklisting\n  function blacklistNode(string _enodeId) external canVote\n  {\n    require(getNodeStatus(_enodeId) == NodeStatus.PendingBlacklisting, \"Node need to be in PendingBlacklisting status\");\n    uint nodeIndex = getNodeIndex(_enodeId);\n    require(voteStatus[nodeIndex][msg.sender] == false, \"Node can not double vote\");\n    // vote node\n    voteStatus[nodeIndex][msg.sender] = true;\n    voteCount[nodeIndex]++;\n    // emit event\n    // check if node vote reach majority\n    if (checkEnoughVotes(nodeIndex)) {\n      nodeList[nodeIndex].status = NodeStatus.Blacklisted;\n      emit NodeBlacklisted(nodeList[nodeIndex].enodeId, nodeList[nodeIndex].ipAddrPort, nodeList[nodeIndex].discPort, nodeList[nodeIndex].raftPort);\n    }\n  }\n\n  // Cancel current pending node operation\n  function cancelPendingOperation(string _enodeId) external canVote\n  {\n    require(getNodeStatus(_enodeId) == NodeStatus.PendingApproval || getNodeStatus(_enodeId) == NodeStatus.PendingActivation || getNodeStatus(_enodeId) == NodeStatus.PendingDeactivation || getNodeStatus(_enodeId) == NodeStatus.PendingBlacklisting, \"Node status must be in pending\");\n    uint nodeIndex = getNodeIndex(_enodeId);\n    nodeList[nodeIndex].status = prependingStatus[nodeIndex];\n    emit PendingOperationCancelled(_enodeId);\n  }\n\n  function initAccounts(address account) external\n  {\n    initialAcctList.push(account);\n    emit AccountAccessModified(account, AccountAccess.FullAccess);\n    require(networkBoot == false, \"network accounts already boot up\");\n    for (uint i=0; i<initialAcctList.length; i++){\n      if (acctToIndex[initialAcctList[i]] == 0){\n        numberOfAccts ++;\n        acctToIndex[initialAcctList[i]] = numberOfAccts;\n        acctAccessList.push(AccountAccessDetails(initialAcctList[i], AccountAccess.FullAccess));\n        emit AccountAccessModified(initialAcctList[i], AccountAccess.FullAccess);\n      }\n    }\n  }\n\n  // Checks if the Node is already added. If yes then returns true\n  function updateAccountAccess(address _address, AccountAccess _accountAccess) external\n  {\n    // Check if account already exists\n    uint acctIndex = getAcctIndex(_address);\n    if (acctToIndex[_address] != 0){\n      acctAccessList[acctIndex].acctAccess = _accountAccess;\n    }\n    else{\n      numberOfAccts ++;\n      acctToIndex[_address] = numberOfAccts;\n      acctAccessList.push(AccountAccessDetails(_address, _accountAccess));\n    }\n    emit AccountAccessModified(_address, _accountAccess);\n  }\n\n  // Add voting account\n  function addVoter(address _address) external\n  {\n    // Check if account already exists\n    for (uint i=0; i<voterAcctList.length; i++){\n      if (voterAcctList[i] == _address){\n        return;\n      }\n    }\n    voterAcctList.push(_address);\n  }\n  // Remove voting account\n  function removeVoter(address _address) external\n  {\n    // Check if account already exists\n    for (uint i=0; i<voterAcctList.length; i++){\n      if (voterAcctList[i] == _address){\n        for (uint j=i; j<voterAcctList.length -1; j++){\n          voterAcctList[j] = voterAcctList[j+1];\n        }\n        delete voterAcctList[voterAcctList.length - 1];\n        voterAcctList.length --;\n      }\n    }\n  }\n\n  /* private functions */\n  function getNodeIndex(string _enodeId) internal view returns (uint)\n  {\n    return nodeIdToIndex[keccak256(abi.encodePacked(_enodeId))] - 1;\n  }\n\n  /* private functions */\n  function getAcctIndex(address _acct) internal view returns (uint)\n  {\n    return acctToIndex[_acct] - 1;\n  }\n\n  function checkVotingAccountExist() internal view returns (bool)\n  {\n    if (voterAcctList.length == 0){\n      return false;\n    } else {\n      return true;\n    }\n  }\n\n}\n",
  "sourcePath": "/Users/zzy/Desktop/Projects/quorum-contracts/permissions/contracts/Permissions.sol",
  "compiler": {
    "name": "solc",
    "version": "0.4.24+commit.e67f0147.Emscripten.clang"
  },
  "schemaVersion": "2.0.1",
  "updatedAt": "2019-01-23T11:15:20.475Z"
}