{
  "contractName": "Permissions",
  "abi": [
    {
      "anonymous": false,
      "inputs": [
        {
          "indexed": false,
          "name": "_enodeId",
          "type": "string"
        }
      ],
      "name": "NewNodeProposed",
      "type": "event"
    },
    {
      "anonymous": false,
      "inputs": [
        {
          "indexed": false,
          "name": "_enodeId",
          "type": "string"
        },
        {
          "indexed": false,
          "name": "_ipAddrPort",
          "type": "string"
        },
        {
          "indexed": false,
          "name": "_discPort",
          "type": "string"
        },
        {
          "indexed": false,
          "name": "_raftPort",
          "type": "string"
        }
      ],
      "name": "NodeApproved",
      "type": "event"
    },
    {
      "anonymous": false,
      "inputs": [
        {
          "indexed": false,
          "name": "_enodeId",
          "type": "string"
        }
      ],
      "name": "NodePendingDeactivation",
      "type": "event"
    },
    {
      "anonymous": false,
      "inputs": [
        {
          "indexed": false,
          "name": "_enodeId",
          "type": "string"
        },
        {
          "indexed": false,
          "name": "_ipAddrPort",
          "type": "string"
        },
        {
          "indexed": false,
          "name": "_discPort",
          "type": "string"
        },
        {
          "indexed": false,
          "name": "_raftPort",
          "type": "string"
        }
      ],
      "name": "NodeDeactivated",
      "type": "event"
    },
    {
      "anonymous": false,
      "inputs": [
        {
          "indexed": false,
          "name": "acctId",
          "type": "address"
        },
        {
          "indexed": false,
          "name": "access",
          "type": "uint8"
        }
      ],
      "name": "AcctAccessModified",
      "type": "event"
    },
    {
      "anonymous": false,
      "inputs": [
        {
          "indexed": false,
          "name": "_enodeId",
          "type": "string"
        }
      ],
      "name": "NodePendingBlacklisting",
      "type": "event"
    },
    {
      "anonymous": false,
      "inputs": [
        {
          "indexed": false,
          "name": "_enodeId",
          "type": "string"
        },
        {
          "indexed": false,
          "name": "_ipAddrPort",
          "type": "string"
        },
        {
          "indexed": false,
          "name": "_discPort",
          "type": "string"
        },
        {
          "indexed": false,
          "name": "_raftPort",
          "type": "string"
        }
      ],
      "name": "NodeBlacklisted",
      "type": "event"
    },
    {
      "constant": true,
      "inputs": [
        {
          "name": "_enodeId",
          "type": "string"
        }
      ],
      "name": "getNodeStatus",
      "outputs": [
        {
          "name": "_status",
          "type": "uint8"
        }
      ],
      "payable": false,
      "stateMutability": "view",
      "type": "function"
    },
    {
      "constant": false,
      "inputs": [
        {
          "name": "_enodeId",
          "type": "string"
        },
        {
          "name": "_canWrite",
          "type": "bool"
        },
        {
          "name": "_canLead",
          "type": "bool"
        },
        {
          "name": "_ipAddrPort",
          "type": "string"
        },
        {
          "name": "_discPort",
          "type": "string"
        },
        {
          "name": "_raftPort",
          "type": "string"
        }
      ],
      "name": "ProposeNode",
      "outputs": [],
      "payable": false,
      "stateMutability": "nonpayable",
      "type": "function"
    },
    {
      "constant": false,
      "inputs": [
        {
          "name": "_enodeId",
          "type": "string"
        }
      ],
      "name": "ApproveNode",
      "outputs": [],
      "payable": false,
      "stateMutability": "nonpayable",
      "type": "function"
    },
    {
      "constant": false,
      "inputs": [
        {
          "name": "_enodeId",
          "type": "string"
        }
      ],
      "name": "ProposeDeactivation",
      "outputs": [],
      "payable": false,
      "stateMutability": "nonpayable",
      "type": "function"
    },
    {
      "constant": false,
      "inputs": [
        {
          "name": "_enodeId",
          "type": "string"
        }
      ],
      "name": "DeactivateNode",
      "outputs": [],
      "payable": false,
      "stateMutability": "nonpayable",
      "type": "function"
    },
    {
      "constant": false,
      "inputs": [
        {
          "name": "_enodeId",
          "type": "string"
        },
        {
          "name": "_ipAddrPort",
          "type": "string"
        },
        {
          "name": "_discPort",
          "type": "string"
        },
        {
          "name": "_raftPort",
          "type": "string"
        }
      ],
      "name": "ProposeNodeBlacklisting",
      "outputs": [],
      "payable": false,
      "stateMutability": "nonpayable",
      "type": "function"
    },
    {
      "constant": false,
      "inputs": [
        {
          "name": "_enodeId",
          "type": "string"
        }
      ],
      "name": "BlacklistNode",
      "outputs": [],
      "payable": false,
      "stateMutability": "nonpayable",
      "type": "function"
    },
    {
      "constant": false,
      "inputs": [
        {
          "name": "_acctId",
          "type": "address"
        },
        {
          "name": "access",
          "type": "uint8"
        }
      ],
      "name": "updateAcctAccess",
      "outputs": [],
      "payable": false,
      "stateMutability": "nonpayable",
      "type": "function"
    }
  ],
  "bytecode": "0x608060405234801561001057600080fd5b50611fac806100206000396000f30060806040526004361061008e576000357c0100000000000000000000000000000000000000000000000000000000900463ffffffff1680632b6f15a114610093578063397eeccb146100fc5780636b4b4867146101875780636dcd03e0146102da578063913fc7d714610343578063bc67f80b14610393578063c1dd1d92146103fc578063f06be99b14610465575b600080fd5b34801561009f57600080fd5b506100fa600480360381019080803590602001908201803590602001908080601f01602080910402602001604051908101604052809392919081815260200183838082843782019150505050505091929192905050506105a0565b005b34801561010857600080fd5b50610163600480360381019080803590602001908201803590602001908080601f0160208091040260200160405190810160405280939291908181526020018383808284378201915050505050509192919290505050610a39565b6040518082600681111561017357fe5b60ff16815260200191505060405180910390f35b34801561019357600080fd5b506102d8600480360381019080803590602001908201803590602001908080601f0160208091040260200160405190810160405280939291908181526020018383808284378201915050505050509192919290803515159060200190929190803515159060200190929190803590602001908201803590602001908080601f0160208091040260200160405190810160405280939291908181526020018383808284378201915050505050509192919290803590602001908201803590602001908080601f0160208091040260200160405190810160405280939291908181526020018383808284378201915050505050509192919290803590602001908201803590602001908080601f0160208091040260200160405190810160405280939291908181526020018383808284378201915050505050509192919290505050610b3b565b005b3480156102e657600080fd5b50610341600480360381019080803590602001908201803590602001908080601f0160208091040260200160405190810160405280939291908181526020018383808284378201915050505050509192919290505050610e81565b005b34801561034f57600080fd5b50610391600480360381019080803573ffffffffffffffffffffffffffffffffffffffff169060200190929190803560ff1690602001909291905050506110e9565b005b34801561039f57600080fd5b506103fa600480360381019080803590602001908201803590602001908080601f016020809104026020016040519081016040528093929190818152602001838380828437820191505050505050919291929050505061124e565b005b34801561040857600080fd5b50610463600480360381019080803590602001908201803590602001908080601f01602080910402602001604051908101604052809392919081815260200183838082843782019150505050505091929192905050506116e7565b005b34801561047157600080fd5b5061059e600480360381019080803590602001908201803590602001908080601f0160208091040260200160405190810160405280939291908181526020018383808284378201915050505050509192919290803590602001908201803590602001908080601f0160208091040260200160405190810160405280939291908181526020018383808284378201915050505050509192919290803590602001908201803590602001908080601f0160208091040260200160405190810160405280939291908181526020018383808284378201915050505050509192919290803590602001908201803590602001908080601f0160208091040260200160405190810160405280939291908181526020018383808284378201915050505050509192919290505050611af1565b005b6000600560068111156105af57fe5b6105b883610a39565b60068111156105c357fe5b14151561065e576040517f08c379a000000000000000000000000000000000000000000000000000000000815260040180806020018281038252602d8152602001807f4e6f6465206e65656420746f20626520696e2050656e64696e67426c61636b6c81526020017f697374696e67207374617475730000000000000000000000000000000000000081525060400191505060405180910390fd5b816040516020018082805190602001908083835b6020831015156106975780518252602082019150602081019050602083039250610672565b6001836020036101000a0380198251168184511680821785525050505050509050019150506040516020818303038152906040526040518082805190602001908083835b60208310151561070057805182526020820191506020810190506020830392506106db565b6001836020036101000a038019825116818451168082178552505050505050905001915050604051809103902090506006600080836000191660001916815260200190815260200160002060040160026101000a81548160ff0219169083600681111561076957fe5b02179055507fe1b239bf9d5854aeca74dfeac25d6ce470230bdb5f0eec48713c4375becfe97e600080836000191660001916815260200190815260200160002060000160008084600019166000191681526020019081526020016000206001016000808560001916600019168152602001908152602001600020600201600080866000191660001916815260200190815260200160002060030160405180806020018060200180602001806020018581038552898181546001816001161561010002031660029004815260200191508054600181600116156101000203166002900480156108985780601f1061086d57610100808354040283529160200191610898565b820191906000526020600020905b81548152906001019060200180831161087b57829003601f168201915b505085810384528881815460018160011615610100020316600290048152602001915080546001816001161561010002031660029004801561091b5780601f106108f05761010080835404028352916020019161091b565b820191906000526020600020905b8154815290600101906020018083116108fe57829003601f168201915b505085810383528781815460018160011615610100020316600290048152602001915080546001816001161561010002031660029004801561099e5780601f106109735761010080835404028352916020019161099e565b820191906000526020600020905b81548152906001019060200180831161098157829003601f168201915b5050858103825286818154600181600116156101000203166002900481526020019150805460018160011615610100020316600290048015610a215780601f106109f657610100808354040283529160200191610a21565b820191906000526020600020905b815481529060010190602001808311610a0457829003601f168201915b50509850505050505050505060405180910390a15050565b6000806000836040516020018082805190602001908083835b602083101515610a775780518252602082019150602081019050602083039250610a52565b6001836020036101000a0380198251168184511680821785525050505050509050019150506040516020818303038152906040526040518082805190602001908083835b602083101515610ae05780518252602082019150602081019050602083039250610abb565b6001836020036101000a03801982511681845116808217855250505050505090500191505060405180910390206000191660001916815260200190815260200160002060040160029054906101000a900460ff169050919050565b60006006811115610b4857fe5b610b5187610a39565b6006811115610b5c57fe5b141515610bd1576040517f08c379a000000000000000000000000000000000000000000000000000000000815260040180806020018281038252601e8152602001807f4e6577206e6f64652063616e6e6f7420626520696e20746865206c697374000081525060200191505060405180910390fd5b60e0604051908101604052808781526020018481526020018381526020018281526020018615158152602001851515815260200160016006811115610c1257fe5b815250600080886040516020018082805190602001908083835b602083101515610c515780518252602082019150602081019050602083039250610c2c565b6001836020036101000a0380198251168184511680821785525050505050509050019150506040516020818303038152906040526040518082805190602001908083835b602083101515610cba5780518252602082019150602081019050602083039250610c95565b6001836020036101000a0380198251168184511680821785525050505050509050019150506040518091039020600019166000191681526020019081526020016000206000820151816000019080519060200190610d19929190611edb565b506020820151816001019080519060200190610d36929190611edb565b506040820151816002019080519060200190610d53929190611edb565b506060820151816003019080519060200190610d70929190611edb565b5060808201518160040160006101000a81548160ff02191690831515021790555060a08201518160040160016101000a81548160ff02191690831515021790555060c08201518160040160026101000a81548160ff02191690836006811115610dd557fe5b02179055509050507fe370df14cec622d932b6c03454042c48c2815c9f96d22ab2bdb2e7171d96eb00866040518080602001828103825283818151815260200191508051906020019080838360005b83811015610e3f578082015181840152602081019050610e24565b50505050905090810190601f168015610e6c5780820380516001836020036101000a031916815260200191505b509250505060405180910390a1505050505050565b60026006811115610e8e57fe5b610e9782610a39565b6006811115610ea257fe5b141515610f3d576040517f08c379a00000000000000000000000000000000000000000000000000000000081526004018080602001828103825260228152602001807f4e6f6465206e65656420746f20626520696e20417070726f766564207374617481526020017f757300000000000000000000000000000000000000000000000000000000000081525060400191505060405180910390fd5b6003600080836040516020018082805190602001908083835b602083101515610f7b5780518252602082019150602081019050602083039250610f56565b6001836020036101000a0380198251168184511680821785525050505050509050019150506040516020818303038152906040526040518082805190602001908083835b602083101515610fe45780518252602082019150602081019050602083039250610fbf565b6001836020036101000a03801982511681845116808217855250505050505090500191505060405180910390206000191660001916815260200190815260200160002060040160026101000a81548160ff0219169083600681111561104557fe5b02179055507f2b5689b33f48f1dcbda2084e130a9bee7b3bf14dc767ea74cbdf3e5fffb118e4816040518080602001828103825283818151815260200191508051906020019080838360005b838110156110ac578082015181840152602081019050611091565b50505050905090810190601f1680156110d95780820380516001836020036101000a031916815260200191505b509250505060405180910390a150565b60408051908101604052808373ffffffffffffffffffffffffffffffffffffffff16815260200182600381111561111c57fe5b815250600260008473ffffffffffffffffffffffffffffffffffffffff1673ffffffffffffffffffffffffffffffffffffffff16815260200190815260200160002060008201518160000160006101000a81548173ffffffffffffffffffffffffffffffffffffffff021916908373ffffffffffffffffffffffffffffffffffffffff16021790555060208201518160000160146101000a81548160ff021916908360038111156111c957fe5b02179055509050507fb9f8d88def106a1a167b617a197bee4323d3997cb1fa46b785c1a7b9af6e82a88282604051808373ffffffffffffffffffffffffffffffffffffffff1673ffffffffffffffffffffffffffffffffffffffff16815260200182600381111561123657fe5b60ff1681526020019250505060405180910390a15050565b60006003600681111561125d57fe5b61126683610a39565b600681111561127157fe5b14151561130c576040517f08c379a000000000000000000000000000000000000000000000000000000000815260040180806020018281038252602d8152602001807f4e6f6465206e65656420746f20626520696e2050656e64696e6744656163746981526020017f766174696f6e207374617475730000000000000000000000000000000000000081525060400191505060405180910390fd5b816040516020018082805190602001908083835b6020831015156113455780518252602082019150602081019050602083039250611320565b6001836020036101000a0380198251168184511680821785525050505050509050019150506040516020818303038152906040526040518082805190602001908083835b6020831015156113ae5780518252602082019150602081019050602083039250611389565b6001836020036101000a038019825116818451168082178552505050505050905001915050604051809103902090506004600080836000191660001916815260200190815260200160002060040160026101000a81548160ff0219169083600681111561141757fe5b02179055507fd5fa0ecdea15b332dd0a270c65234bc4aee212edf2ed62eb2fd182ef55ca98a1600080836000191660001916815260200190815260200160002060000160008084600019166000191681526020019081526020016000206001016000808560001916600019168152602001908152602001600020600201600080866000191660001916815260200190815260200160002060030160405180806020018060200180602001806020018581038552898181546001816001161561010002031660029004815260200191508054600181600116156101000203166002900480156115465780601f1061151b57610100808354040283529160200191611546565b820191906000526020600020905b81548152906001019060200180831161152957829003601f168201915b50508581038452888181546001816001161561010002031660029004815260200191508054600181600116156101000203166002900480156115c95780601f1061159e576101008083540402835291602001916115c9565b820191906000526020600020905b8154815290600101906020018083116115ac57829003601f168201915b505085810383528781815460018160011615610100020316600290048152602001915080546001816001161561010002031660029004801561164c5780601f106116215761010080835404028352916020019161164c565b820191906000526020600020905b81548152906001019060200180831161162f57829003601f168201915b50508581038252868181546001816001161561010002031660029004815260200191508054600181600116156101000203166002900480156116cf5780601f106116a4576101008083540402835291602001916116cf565b820191906000526020600020905b8154815290600101906020018083116116b257829003601f168201915b50509850505050505050505060405180910390a15050565b6000600160068111156116f657fe5b6116ff83610a39565b600681111561170a57fe5b14151561171657600080fd5b816040516020018082805190602001908083835b60208310151561174f578051825260208201915060208101905060208303925061172a565b6001836020036101000a0380198251168184511680821785525050505050509050019150506040516020818303038152906040526040518082805190602001908083835b6020831015156117b85780518252602082019150602081019050602083039250611793565b6001836020036101000a038019825116818451168082178552505050505050905001915050604051809103902090506002600080836000191660001916815260200190815260200160002060040160026101000a81548160ff0219169083600681111561182157fe5b02179055507fc6d86deaa3b3cf7c374cfd405aae9f08571fce2bf6ccfe8f98a399cda8960a98600080836000191660001916815260200190815260200160002060000160008084600019166000191681526020019081526020016000206001016000808560001916600019168152602001908152602001600020600201600080866000191660001916815260200190815260200160002060030160405180806020018060200180602001806020018581038552898181546001816001161561010002031660029004815260200191508054600181600116156101000203166002900480156119505780601f1061192557610100808354040283529160200191611950565b820191906000526020600020905b81548152906001019060200180831161193357829003601f168201915b50508581038452888181546001816001161561010002031660029004815260200191508054600181600116156101000203166002900480156119d35780601f106119a8576101008083540402835291602001916119d3565b820191906000526020600020905b8154815290600101906020018083116119b657829003601f168201915b5050858103835287818154600181600116156101000203166002900481526020019150805460018160011615610100020316600290048015611a565780601f10611a2b57610100808354040283529160200191611a56565b820191906000526020600020905b815481529060010190602001808311611a3957829003601f168201915b5050858103825286818154600181600116156101000203166002900481526020019150805460018160011615610100020316600290048015611ad95780601f10611aae57610100808354040283529160200191611ad9565b820191906000526020600020905b815481529060010190602001808311611abc57829003601f168201915b50509850505050505050505060405180910390a15050565b60006006811115611afe57fe5b611b0785610a39565b6006811115611b1257fe5b1415611d2b5760e06040519081016040528085815260200184815260200183815260200182815260200160001515815260200160001515815260200160056006811115611b5b57fe5b815250600080866040516020018082805190602001908083835b602083101515611b9a5780518252602082019150602081019050602083039250611b75565b6001836020036101000a0380198251168184511680821785525050505050509050019150506040516020818303038152906040526040518082805190602001908083835b602083101515611c035780518252602082019150602081019050602083039250611bde565b6001836020036101000a0380198251168184511680821785525050505050509050019150506040518091039020600019166000191681526020019081526020016000206000820151816000019080519060200190611c62929190611edb565b506020820151816001019080519060200190611c7f929190611edb565b506040820151816002019080519060200190611c9c929190611edb565b506060820151816003019080519060200190611cb9929190611edb565b5060808201518160040160006101000a81548160ff02191690831515021790555060a08201518160040160016101000a81548160ff02191690831515021790555060c08201518160040160026101000a81548160ff02191690836006811115611d1e57fe5b0217905550905050611e39565b6005600080866040516020018082805190602001908083835b602083101515611d695780518252602082019150602081019050602083039250611d44565b6001836020036101000a0380198251168184511680821785525050505050509050019150506040516020818303038152906040526040518082805190602001908083835b602083101515611dd25780518252602082019150602081019050602083039250611dad565b6001836020036101000a03801982511681845116808217855250505050505090500191505060405180910390206000191660001916815260200190815260200160002060040160026101000a81548160ff02191690836006811115611e3357fe5b02179055505b7fb72401fcad1677cdc28a305cfafaaec7f95e3be1fdddc2053d10e87e4997532b846040518080602001828103825283818151815260200191508051906020019080838360005b83811015611e9b578082015181840152602081019050611e80565b50505050905090810190601f168015611ec85780820380516001836020036101000a031916815260200191505b509250505060405180910390a150505050565b828054600181600116156101000203166002900490600052602060002090601f016020900481019282601f10611f1c57805160ff1916838001178555611f4a565b82800160010185558215611f4a579182015b82811115611f49578251825591602001919060010190611f2e565b5b509050611f579190611f5b565b5090565b611f7d91905b80821115611f79576000816000905550600101611f61565b5090565b905600a165627a7a72305820310068b4cd938602bb78929a5669d901d0fc6283c5dd1274df22a4d844f7a0f60029",
  "source": "pragma solidity ^0.4.23;\n\ncontract Permissions {\n\n  enum NodeStatus { NotInList, PendingApproval, Approved, PendingDeactivation, Deactivated, PendingBlacklisting, Blacklisted}\n\n  enum AccountAccess {FullAccess, ReadOnly, Transact, ContractDeploy}\n\n  struct nodeDetails {\n    string enodeId;\n    //e.g. 127.0.0.1:20005\n    string ipAddrPort;\n    string discPort;\n    string raftPort;\n    bool canWrite;\n    bool canLead;\n    NodeStatus status;\n  }\n  mapping (bytes32 => nodeDetails) nodeList;\n  uint numberOfNodes;\n\n  struct acctAccess {\n    address acctId;\n    AccountAccess access;\n  }\n  mapping (address => acctAccess) acctAccessList;\n\n  event NewNodeProposed (string _enodeId);\n  event NodeApproved(string _enodeId, string _ipAddrPort, string _discPort, string _raftPort);\n  event NodePendingDeactivation (string _enodeId);\n  event NodeDeactivated(string _enodeId, string _ipAddrPort, string _discPort, string _raftPort);\n  event AcctAccessModified (address acctId, AccountAccess access);\n  event NodePendingBlacklisting(string _enodeId);\n  event NodeBlacklisted(string _enodeId, string _ipAddrPort, string _discPort, string _raftPort);\n\n  // Checks if the Node is already added. If yes then returns true\n  function getNodeStatus (string _enodeId) public view returns (NodeStatus _status) {\n    return nodeList[keccak256(abi.encodePacked(_enodeId))].status;\n  }\n\n  // propose a new node to the network\n  function ProposeNode(string _enodeId, bool _canWrite, bool _canLead, string _ipAddrPort, string _discPort, string _raftPort) public {\n    require(getNodeStatus(_enodeId) == NodeStatus.NotInList, \"New node cannot be in the list\");\n    nodeList[keccak256(abi.encodePacked(_enodeId))] = nodeDetails(_enodeId, _ipAddrPort,_discPort, _raftPort,  _canWrite, _canLead, NodeStatus.PendingApproval);\n    emit NewNodeProposed (_enodeId);\n  }\n\n  // Adds a node to the nodeList mapping and emits node added event if successfully and node exists event of node is already present\n  function ApproveNode(string _enodeId) public {\n    require(getNodeStatus(_enodeId) == NodeStatus.PendingApproval);\n\n    bytes32 i;\n    i = keccak256(abi.encodePacked(_enodeId));\n    nodeList[i].status = NodeStatus.Approved;\n    emit NodeApproved(nodeList[i].enodeId, nodeList[i].ipAddrPort, nodeList[i].discPort, nodeList[i].raftPort);\n  }\n\n  // Propose a node for deactivation from network\n  function ProposeDeactivation(string _enodeId) public {\n    require(getNodeStatus(_enodeId) == NodeStatus.Approved, \"Node need to be in Approved status\");\n    nodeList[keccak256(abi.encodePacked(_enodeId))].status = NodeStatus.PendingDeactivation;\n    emit NodePendingDeactivation(_enodeId);\n  }\n\n  //deactivates a given Enode and emits the decativation event\n  function DeactivateNode (string _enodeId) public {\n    require(getNodeStatus(_enodeId) == NodeStatus.PendingDeactivation, \"Node need to be in PendingDeactivation status\");\n    bytes32 i;\n    i = keccak256(abi.encodePacked(_enodeId));\n    nodeList[i].status = NodeStatus.Deactivated;\n    emit NodeDeactivated(nodeList[i].enodeId, nodeList[i].ipAddrPort, nodeList[i].discPort, nodeList[i].raftPort);\n  }\n\n  // Propose node for blacklisting\n  function ProposeNodeBlacklisting(string _enodeId, string _ipAddrPort, string _discPort, string _raftPort) public {\n    if (getNodeStatus(_enodeId) == NodeStatus.NotInList){\n      nodeList[keccak256(abi.encodePacked(_enodeId))] = nodeDetails(_enodeId, _ipAddrPort,_discPort, _raftPort,  false, false, NodeStatus.PendingBlacklisting);\n    }\n    else {\n      nodeList[keccak256(abi.encodePacked(_enodeId))].status = NodeStatus.PendingBlacklisting;\n    }\n    emit NodePendingBlacklisting (_enodeId);\n  }\n\n  //Approve node blacklisting\n  function BlacklistNode (string _enodeId) public {\n    require(getNodeStatus(_enodeId) == NodeStatus.PendingBlacklisting, \"Node need to be in PendingBlacklisting status\");\n    bytes32 i;\n    i = keccak256(abi.encodePacked(_enodeId));\n    nodeList[i].status = NodeStatus.Blacklisted;\n    emit NodeBlacklisted(nodeList[i].enodeId, nodeList[i].ipAddrPort, nodeList[i].discPort, nodeList[i].raftPort);\n  }\n\n  // Checks if the Node is already added. If yes then returns true\n  function updateAcctAccess (address _acctId, AccountAccess access) public {\n    acctAccessList[_acctId] = acctAccess(_acctId, access);\n    emit AcctAccessModified(_acctId, access);\n  }\n\n}\n",
  "sourcePath": "/Users/zzy/Desktop/quorum-contracts/permissions/contracts/Permissions.sol",
  "compiler": {
    "name": "solc",
    "version": "0.4.24+commit.e67f0147.Emscripten.clang"
  },
  "schemaVersion": "2.0.1",
  "updatedAt": "2018-09-03T11:34:19.232Z"
}